:100000000C942A000C9434000C9434000C943400AA
:100010000C9434000C9434000C9434000C94340090
:100020000C9434000C9434000C9434000C94340080
:100030000C9434000C9434000C9434000C94340070
:100040000C9434000C9434000C9434000C94340060
:100050000C94340011241FBECFE5D4E0DEBFCDBF29
:100060000E9436000C9444000C9400008FEF84BB77
:100070004FEF24ED30E345BBC9010197F1F715BA05
:0C008000C9010197F1F7F7CFF894FFCF0A
:00000001FF
