:100000000C942A000C9434000C9434000C943400AA
:100010000C9434000C9434000C9434000C94340090
:100020000C9434000C9434000C9434000C94340080
:100030000C9434000C9434000C9434000C94340070
:100040000C9434000C9434000C9434000C94340060
:100050000C94340011241FBECFE5D8E0DEBFCDBF25
:100060000E942F010C946B010C940000DD9881E03C
:1000700085BBDF9A8A95F1F7DF9884EF91E00197CD
:10008000F1F70895DD9882E085BBDF9A81E08A95DB
:10009000F1F7DF9884EF91E00197F1F70895DD988B
:1000A00085BBDF9A81E08A95F1F7DF988DE08A952C
:1000B000F1F70895DF93CF9300D00F92CDB7DEB75D
:1000C0008FEF84BB8AB3806A8ABB8BB38F758BBB7F
:1000D000D69A8BB38F6B8BBB86EA9EE0FC0131977F
:1000E000F1F70197F1F788E389838CE08A8386E052
:1000F0008B8388E30E944F008A810E944F0086E034
:100100000E944F000E9436000F900F900F90CF91E9
:10011000DF910895DD9A85BBDF9A81E08A95F1F73A
:10012000DF988DE08A95F1F708951F93282F64E6F4
:100130000E944B01192F822F0E944B01805D0E946B
:100140008A00812F6AE00E944B01805D0E948A0034
:10015000812F6AE00E944B01892F805D0E948A00F6
:100160001F910895EF92FF920F931F939C0160E1FE
:1001700077E20E945701182F092FC90160E177E249
:100180000E945701862F805D0E948A00812F902F48
:1001900068EE73E00E945701F82EE92E812F902F10
:1001A00068EE73E00E945701862F805D0E948A00EE
:1001B0008F2D9E2D64E670E00E945701182F092FA5
:1001C0008F2D9E2D64E670E00E945701862F805D82
:1001D0000E948A00812F902F6AE070E00E945701F0
:1001E000862F805D0E948A00812F902F6AE070E048
:1001F0000E945701805D0E948A001F910F91FF901D
:10020000EF90089580586295660F660F607C860FA8
:100210000E944F000895D198D99880E687B986E862
:1002200086B987B1807E8F5F87B9369A3699FECFBF
:100230000895D098D89887B1807E8F5F87B9369A15
:100240003699FECF85B10895D198D99887B1807E2F
:100250008F5F87B9369A3699FECF85B10895CF93CF
:10026000DF930E940B010E945A0020E137E2C9E1AE
:10027000D0E005C0CE010197F1F7215030402115A3
:100280003105C1F70E9442000E9424010E9495009E
:1002900020E137E2EFCF991B79E004C0991F961750
:1002A00008F0961B881F7A95C9F780950895AA1BB8
:1002B000BB1B51E107C0AA1FBB1FA617B70710F051
:1002C000A61BB70B881F991F5A95A9F78095909583
:0A02D000BC01CD010895F894FFCFA2
:00000001FF
