:100000000C942A000C943F000C943F000C943F0089
:100010000C943F000C943F000C943F000C943F0064
:100020000C943F000C943F000C943F000C943F0054
:100030000C943F000C943F000C943F000C943F0044
:100040000C943F000C943F000C943F000C943F0034
:100050000C943F0011241FBECFE5D4E0DEBFCDBF1E
:1000600010E0A0E6B0E0E6ECF2E002C005900D92F0
:10007000AE36B107D9F70E9417010C9461010C94B8
:100080000000959881E088BB979A85E08A95F1F702
:10009000979880EA9FE00197F1F70895959882E09C
:1000A00088BB979A85E08A95F1F7979880EA9FE058
:1000B0000197F1F70895959888BB979A82E08A9501
:1000C000F1F797988AE68A95F1F70895DF93CF9331
:1000D00000D00F92CDB7DEB78FEF87BB81B3806AB8
:1000E00081BB82B38F7582BB8E9A82B38F6B82BBCA
:1000F00080E395E7FC013197F1F70197F1F788E389
:1001000089838CE08A8386E08B8388E30E945B008E
:100110008A810E945B0086E00E945B000E94410091
:100120000F900F900F90CF91DF910895959A88BB13
:10013000979A82E08A95F1F797988AE68A95F1F77F
:1001400008951F93282F64E60E944101192F822FE2
:100150000E944101805D0E949600812F6AE00E940A
:100160004101805D0E949600812F6AE00E9441015A
:10017000892F805D0E9496001F910895EF92FF9253
:100180000F931F939C0160E177E20E944D01182FAD
:10019000092FC90160E177E20E944D01862F805D41
:1001A0000E949600812F902F68EE73E00E944D010F
:1001B000F82EE92E812F902F68EE73E00E944D01FA
:1001C000862F805D0E9496008F2D9E2D64E670E044
:1001D0000E944D01182F092F8F2D9E2D64E670E08F
:1001E0000E944D01862F805D0E949600812F902FE6
:1001F0006AE070E00E944D01862F805D0E949600AB
:10020000812F902F6AE070E00E944D01805D0E9476
:1002100096001F910F91FF90EF900895805862957E
:10022000660F660F607C860F0E945B000895EF9258
:10023000FF920F931F93DF93CF93CDB7DEB72D9728
:100240000FB6F894DEBF0FBECDBFDE011196E0E61B
:10025000F0E08DE001900D928150E1F70E94660080
:100260008E010F5F1F4F8DE0E82EF12CEC0EFD1E6E
:10027000F80181918F010E9496000E151F05C1F7AC
:10028000FFCF991B79E004C0991F961708F0961BC1
:10029000881F7A95C9F780950895AA1BBB1B51E169
:1002A00007C0AA1FBB1FA617B70710F0A61BB70BE6
:1002B000881F991F5A95A9F780959095BC01CD018B
:0602C0000895F894FFCF41
:0E02C60048656C6C6F204D616A6F72210000FC
:00000001FF
