:100000000C943E000C945B000C945B000C945B0021
:100010000C945B000C945B000C945B000C945B00F4
:100020000C945B000C945B000C945B000C945B00E4
:100030000C945B000C945B000C945B000C945B00D4
:100040000C945B000C945B000C945B000C945B00C4
:100050000C945B006B036E0371034F0352036B033D
:100060006E037103550358035B035E03620365036C
:1000700068036B036E0371037403770311241FBEBF
:10008000CFE5D4E0DEBFCDBF10E0A0E6B0E0E4E015
:10009000FBE002C005900D92AE39B107D9F710E030
:1000A000AEE9B0E001C01D92A33BB107E1F70E94A9
:1000B00085010C9480050C940000DD9881E085BBDF
:1000C000DF9A8A95F1F7DF9884EF91E00197F1F7D5
:1000D0000895DD9882E085BBDF9A81E08A95F1F78B
:1000E000DF9884EF91E00197F1F70895DD9885BBE3
:1000F000DF9A81E08A95F1F7DF988DE08A95F1F734
:100100000895DF93CF9300D00F92CDB7DEB78FEF76
:1001100084BB8AB3806A8ABB8BB38F758BBBD69A3C
:100120008BB38F6B8BBB86EA9EE0FC013197F1F7B6
:100130000197F1F788E389838CE08A8386E08B83DB
:1001400088E30E9476008A810E94760086E00E9401
:1001500076000E945D000F900F900F90CF91DF917D
:100160000895DD9A85BBDF9A81E08A95F1F7DF98E3
:100170008DE08A95F1F708951F93282F64E60E9479
:100180004D05192F822F0E944D05805D0E94B10000
:10019000812F6AE00E944D05805D0E94B100812F91
:1001A0006AE00E944D05892F805D0E94B1001F9179
:1001B0000895EF92FF920F931F939C0160E177E205
:1001C0000E945905182F092FC90160E177E20E94AA
:1001D0005905862F805D0E94B100812F902F68EE17
:1001E00073E00E945905F82EE92E812F902F68EEBA
:1001F00073E00E945905862F805D0E94B1008F2D0B
:100200009E2D64E670E00E945905182F092F8F2D4E
:100210009E2D64E670E00E945905862F805D0E9445
:10022000B100812F902F6AE070E00E945905862F5F
:10023000805D0E94B100812F902F6AE070E00E94E3
:100240005905805D0E94B1001F910F91FF90EF90C2
:10025000089580586295660F660F607C860F0E9435
:1002600076000895D198D99880E687B986E886B94E
:1002700087B1807E8F5F87B9369A3699FECF089511
:10028000D098D89887B1807E87B9369A3699FECFB4
:1002900085B10895D198D99887B1807E8F5F87B94D
:1002A000369A3699FECF85B1089587B38C6087BBA7
:1002B00088E483BF12BE1CBE089587B38C6087BBE1
:1002C00088E483BF12BE1CBE88B38C6088BB0895CF
:1002D00087B38C6087BB88E483BF12BE1CBE88B323
:1002E000837F88BB089587B38C6087BB88E483BF16
:1002F00012BE1CBEC2988AEA8CBF83B7816283BFDC
:1003000008958AB38C618ABB08952F923F924F92D1
:100310005F926F927F928F929F92AF92BF92CF9295
:10032000DF92EF92FF920F931F93CF93DF938AB3E5
:100330008C618ABB0E9481000E943201C1E6D0E03C
:1003400089910E94B10080E0CC36D807C9F704E05B
:10035000D02E01E012E0F12EB3E0EB2EA5E09A2EB4
:10036000F6E0BF2EE7E06E2E70E8C72E6EE0562E48
:100370005DE0A52E4CE0442E3BE0832E29E0322E9A
:1003800098E0292E80E1782E80919E00833089F0BC
:10039000843028F4813069F08230A0F407C08530C1
:1003A00071F0853048F0863079F40CC010929F00CF
:1003B0000BC080939F0008C000939F0005C0D0929F
:1003C0009F0002C0F0929F0090919F00923049F1EF
:1003D000933030F4992351F0913009F049C010C0A6
:1003E000933049F1943009F043C035C0CA9905C033
:1003F00000939E000093A0003BC010929E0018C086
:10040000CB9905C0F0929E00F092A00031C080917F
:100410009E00813019F4E0929E000AC090929E00E6
:1004200007C0CC9905C010929E00E092A00020C0A9
:100430001092A0001DC00E9440018093A4008B3444
:1004400028F0D0929E009092A00012C000939E00CF
:10045000D092A0000DC08091A100853129F4B09206
:100460009E006092A00004C090939E00B092A000F5
:100470008091A000843009F46EC0853040F4823051
:1004800001F1833070F5813009F0F9C00AC086307F
:1004900009F481C0863008F46CC0873009F0EFC0E1
:1004A00091C00E945D000E946900CDE6D0E0899174
:1004B0000E94B10090E0C737D907C9F70E945D01DB
:1004C000DEC00E945D000E946900C3E8D0E089910F
:1004D0000E94B10080E0CD38D807C9F70E946801BA
:1004E000CEC00E945D000E946900C1E6D0E0899103
:1004F0000E94B10090E0CC36D907C9F710929E0057
:1005000010929F001092A0001092A1001092A200E1
:100510001092A3001092A4001092A500C092600057
:100520001092A6001092A7001092A8001092A900A5
:100530001092AA001092AB001092AC001092AD0085
:100540001092AE001092AF001092B0001092B10065
:100550001092B20094C00E946900CDE6D0E089916B
:100560000E94B10080E0C737D807C9F72091A400E6
:1005700022C00E945D000E946900C8E7D0E0899116
:100580000E94B10090E0C238D907C9F70E947301F8
:100590000093A10074C00E946900C8E7D0E089916F
:1005A0000E94B10080E0C238D807C9F70E9440011C
:1005B000282F8093A400822F6AE00E944D05220F0D
:1005C000820F5BC00E9468010E945D000E9469006A
:1005D000CEE8D0E089910E94B10090E0CD39D907F2
:1005E000C9F780E061E00E9429012091A800822FD4
:1005F0006AE00E944D05220F820F0E94BC008FE22C
:100600000E94B1002091AA00822F6AE00E944D054D
:10061000220F820F0E94BC008FE20E94B100209145
:10062000B200822F6AE00E944D05220F820F0E94C5
:10063000BC008FE20E94B1009091B0008091AC00AC
:1006400086958695890F9091AD0096959695980F11
:100650008091AE0086958695890F6091AF00669572
:100660006695680F6093B00084E690E070E00E94A9
:100670006D0598E2699F802D11240E94BC00809135
:10068000A10090E0FC013197E431F10590F5E65DC1
:10069000FF4FEE0FFF1F0590F491E02D0994D092CB
:1006A000A20027C09092A20024C0B092A20021C054
:1006B0006092A2001EC02092A2001BC08AE080931C
:1006C000A20017C03092A20014C08092A20011C0F4
:1006D0004092A2000EC00093A2000BC0F092A200B4
:1006E00008C0E092A20005C0A092A20002C05092F1
:1006F000A2001091A200173009F4CCC01830B0F459
:10070000133009F472C0143030F4113029F1123072
:1007100009F036C143C0153009F49DC02091600036
:100720008091A600163008F0A4C087C01B3009F4E1
:10073000E5C01C3038F4193009F4D2C01A3008F082
:10074000C6C0B7C01D3009F4F8C01D3008F4E7C0BA
:100750001E3009F015C105C10E944A018093A50011
:10076000909160002091A100891790F4213011F43C
:10077000F092A1008091A100803119F481E1809371
:10078000A1008091A100863069F56092A1002AC085
:10079000213009F096C02093A10093C082EE94E02E
:1007A0000197F1F70E944A018093A50090916000A3
:1007B0002091A100981790F4223011F4E092A1004A
:1007C0008091A100813119F482E18093A100809190
:1007D000A100873079F52092A1002CC0223011F4BD
:1007E0002093A100F092A300CBC082EE94E0019789
:1007F000F1F70E944A018093A5009091A6002091F4
:10080000A100891798F4233011F4D092A1008091AF
:10081000A100823119F483E18093A1008091A100AD
:10082000883009F04EC03092A1004BC0233011F443
:100830002093A100E092A300A3C090E0821B910945
:100840008097449728F49092A1009092A30098C0BA
:100850000093A10083C08091A700843028F0B0925B
:10086000A1006092A3008CC00093A100B092A300ED
:1008700087C090E0821B9109825590408834910591
:1008800030F48AE08093A1002092A30079C0B09256
:10089000A10064C08091A900843030F08092A10052
:1008A0008AE08093A3006CC0B092A1003092A300B4
:1008B00067C00E944A018093A500813828F04092C9
:1008C000A1000093A3005CC08092A100FACF0E9417
:1008D0004A018093A50087FDF2CFA092A100F1CF3D
:1008E0000E944A018093A500813818F05092A1001F
:1008F000E8CFA092A1008092A30042C00E944A01CA
:100900008093A50087FD06C09FE09093A1004092D0
:10091000A30036C05092A1001093A30031C0809173
:10092000AB00843028F07092A1005092A30028C040
:10093000A092A100A092A30023C08091A60090E005
:1009400020916000821B9109C397809728F484E16D
:100950008093A1009FE00DC07092A100D092A300EF
:100960000FC08091B100843038F085E18093A10000
:1009700091E19093A30004C07092A1007092A30033
:100980008091A300883009F443C0893088F4843012
:1009900009F47BC0853030F48230F1F0833009F007
:1009A000F3CC1FC0863009F470C0873060F51EC0DC
:1009B0008C3009F457C08D3028F48A30B1F18B3077
:1009C000C8F563C0803109F460C0813109F460C0AA
:1009D0008F3009F0D9CC4CC08091A5008093600085
:1009E000D3CC8091A5008093A600CECC82E061E0BC
:1009F0000E94290183E50E94B1008091A7008F5FCA
:100A00008093A700C1CC0E9440018093A8003DC004
:100A100082E061E00E9429018DE40E94B100809192
:100A2000A9008F5F8093A900AFCC0E944001809302
:100A3000AA002BC082E061E00E94290188E40E94A4
:100A4000B1008091AB000E94BC0084EC99E001975A
:100A5000F1F7E091AB00F0E0E455FF4F80818F5F4C
:100A6000808392CC8091AB008F5F8093AB008CCC65
:100A700082E061E00E94290184E40E94B10080913B
:100A8000B1008F5F8093B1007FCCC09260007CCCBE
:100A90000E9440018093B20077CC991B79E004C09A
:100AA000991F961708F0961B881F7A95C9F78095AD
:100AB0000895AA1BBB1B51E107C0AA1FBB1FA617A5
:100AC000B70710F0A61BB70B881F991F5A95A9F7F7
:100AD00080959095BC01CD01089597FB092E0726BE
:100AE0000AD077FD04D0E5DF06D000201AF4709517
:100AF00061957F4F0895F6F7909581959F4F0895E2
:040B0000F894FFCF97
:100B040080507265737320535441525400496E6689
:100B14006C6174696E6720004465666C6174696E0B
:100B24006720004465666C6174696E6721005379BF
:0E0B3400732F4D41502F4469612F42504D00E8
:00000001FF
