:100000000C942A000C9434000C9434000C943400AA
:100010000C9434000C9434000C9434000C94340090
:100020000C9434000C9434000C9434000C94340080
:100030000C9434000C9434000C9434000C94340070
:100040000C9434000C9434000C9434000C94340060
:100050000C94340011241FBECFE5D4E0DEBFCDBF29
:100060000E9436000C9455000C9400008FEF8ABB60
:1000700087BB84BB81BB2FEF49E150E02BBB28BB82
:1000800025BB22BB80E29EE4FA013197F1F701978C
:10009000D9F71BBA18BA15BA12BA80E197E2FA0179
:0E00A0003197F1F70197D9F7E9CFF894FFCF28
:00000001FF
