:100000000C942A000C9434000C9434000C943400AA
:100010000C9434000C9434000C9434000C94340090
:100020000C9434000C9434000C9434000C94340080
:100030000C9434000C9434000C9434000C94340070
:100040000C9434000C9434000C9434000C94340060
:100050000C94340011241FBECFE5D4E0DEBFCDBF29
:100060000E9462000C948B000C94000087B38C609B
:1000700087BB88E083BF12BE1CBE089587B38C6027
:1000800087BB88E083BF12BE1CBE88B38C6088BB70
:10009000089587B38C6087BB88E083BF12BE1CBE07
:1000A00088B3837F88BB089587B38C6087BB88E063
:1000B00083BF12BE1CBEC2988FEF8CBF83B7816115
:1000C00083BF0895CF93DF93C9E1D0E00E943E0043
:1000D00080E593ECFE013197F1F70197D9F70E9483
:1000E000490080E593ECFE013197F1F70197D9F7CC
:1000F0000E943E0080E593ECFE013197F1F70197F5
:10010000D9F70E94540080E593ECFE013197F1F796
:0A0110000197D9F7DBCFF894FFCF79
:00000001FF
