:100000000C942A000C943F000C943F000C943F0089
:100010000C943F000C943F000C943F000C943F0064
:100020000C943F000C943F000C943F000C943F0054
:100030000C943F000C943F000C943F000C943F0044
:100040000C943F000C943F000C943F000C943F0034
:100050000C943F0011241FBECFE5D8E0DEBFCDBF1A
:1000600010E0A0E6B0E0E6EDF1E002C005900D92F0
:10007000AE37B107D9F70E94DA000C94E9000C946E
:1000800000009FEF91BB82BB85B3897F85BB85B3A1
:10009000856085BB000000000000000085B38A7FFA
:1000A00085BB11BA089511BA85B3866085BB00007F
:1000B000000080B395B3997F95BB08950E945300CB
:1000C0008823E4F308959FEF91BB82BB85B3887FBB
:1000D00085BBAA9A0000000000000000AA9811BA8F
:1000E0000895CF93DF9384B3876084BB15BACFEFB5
:1000F000DFEFCE010197F1F780E30E946300CE01AC
:100100000197F1F780E30E946300CE010197F1F7B8
:1001100080E30E9463002197F1F788E30E94630067
:100120000E945E008FE00E9463000E945E0081E0FA
:100130000E9463000E945E0086E00E946300DF91DF
:10014000CF910895CF93DF93EC018881882341F00C
:100150000E945E0089910E94410088818823C1F736
:10016000DF91CF9108951F93CF93DF93182F0E94B3
:100170005E0080E30E9441000E945E0088E70E94CA
:1001800041000E945E00812F82958F70CEE6D0E004
:10019000FE01E80FF11D80810E9441000E945E0077
:1001A0001F70C10FD11D88810E944100DF91CF9146
:1001B0001F910895CF93DF938FEF81BB84BB0E9483
:1001C00071000E945E00C0E6D0E0CE010E94A20055
:0601D000FCCFF894FFCF04
:1001D60054657374696E6720777466212100303127
:0E01E6003233343536373839414243444546CA
:00000001FF
